:020000040000FA
:100000000A128A11E12F0F30F60001300A128A1508
:100010001D220A128A110800F301F30A8312031346
:100020000810881088014230F000F00B15280000FD
:1000300083120313081508117308F000033003102E
:10004000F00DFF3E031D1F280310700DF30042301A
:10005000F000F00B292800007308F0398312031315
:100060008800081508110D30F200AF30F100B630ED
:10007000F000F00B3928F10B3928F20B3928000079
:10008000080083120313A601A701F030A900203055
:100090008400630883138000840A64088000840A53
:1000A00065088000840A66088000840A670880006A
:1000B000840A680880000A128A110C200A128A1128
:1000C00080300A128A15B4220A128A112E30F200E8
:1000D0008930F3000A128A156D230A128A11E03062
:1000E0000A128A1593210A128A11FF3A031D7928F0
:1000F0007A28B0288312031305140330FD008A30D8
:10010000FC005530FB00FB0B8328FC0B8328FD0B08
:1001100083288A2883120313AA01AB0183120313D5
:100120002908013EA9003030F00029080A128A157A
:1001300066220A128A11013083120313AA070318D8
:10014000AB0A0030AB072B08803AFF0080307F02FB
:10015000031DAC2806302A02031CAF28B0288E28C5
:10016000C0300A128A15B4220A128A11F0308312A2
:100170000313A900AA01AB01831203132908013E4E
:10018000A9002A08203E840029080A128A15932112
:100190000A128A1183138000013083120313AA0705
:1001A0000318AB0A0030AB072B08803AFF00803001
:1001B0007F02031DDD2806302A02031CE028E12807
:1001C000BC2883120313AA01AB010A128A15C021AD
:1001D0000A128A1183120313A80028080A128A152A
:1001E000D4220A128A11831203132A08203E8400A3
:1001F0008313000828060319FE28FF28032901306D
:10020000A6000030A70005140330FD008A30FC0072
:100210005530FB00FB0B0A29FC0B0A29FD0B0A29B0
:1002200011298312031305100130AA070318AB0A22
:100230000030AB072B08803AFF0080307F02031D9F
:10024000232906302A02031C26292729E5288312A0
:1002500003132603270403192E292F2935290A12EF
:100260008A159A250A128A11402926032704031D9C
:100270003A293B2940290A128A1554240A128A1164
:100280000800831203130610861406158615061A35
:100290004A294B295B290730F1007D30F000F00B33
:1002A0004F29F10B4F2983120313061E5829592990
:1002B00053294430962A861A5E295F296F29073010
:1002C000F1007D30F000F00B6329F10B63298312FC
:1002D0000313861E6C296D2967294330962A061B55
:1002E0007229732983290730F1007D30F000F00B6B
:1002F0007729F10B772983120313061F802981299F
:100300007B294230962A861B862987299729073020
:10031000F1007D30F000F00B8B29F10B8B2983125B
:100320000313861F942995298F294130962A061494
:10033000861006158615061A9E299F29B029413078
:10034000F100EE30F000F00BA329F10BA32900001F
:1003500083120313061EAD29AE29A8292330962A3D
:10036000861AB329B429C4290730F1007D30F00082
:10037000F00BB829F10BB82983120313861EC1298B
:10038000C229BC293930962A061BC729C829D82971
:100390000730F1007D30F000F00BCC29F10BCC29B7
:1003A00083120313061FD529D629D0293630962A61
:1003B000861BDB29DC29EC290730F1007D30F000B9
:1003C000F00BE029F10BE02983120313861FE929C2
:1003D000EA29E4293330962A061486140611861574
:1003E000061AF329F429042A0730F1007D30F000C1
:1003F000F00BF829F10BF82983120313061E012ACA
:10040000022AFC293030962A861A072A082A182A36
:100410000730F1007D30F000F00B0C2AF10B0C2AB4
:1004200083120313861E152A162A102A3830962A9C
:10043000061B1B2A1C2A2C2A0730F1007D30F000F5
:10044000F00B202AF10B202A83120313061F292AFE
:100450002A2A242A3530962A861B2F2A302A402A17
:100460000730F1007D30F000F00B342AF10B342A14
:1004700083120313861F3D2A3E2A382A3230962AD9
:100480000614861406158611061A472A482A592A80
:100490004130F100EE30F000F00B4C2AF10B4C2A09
:1004A000000083120313061E562A572A512A2A30A7
:1004B000962A861A5C2A5D2A6D2A0730F1007D3063
:1004C000F000F00B612AF10B612A83120313861EE0
:1004D0006A2A6B2A652A3730962A061B702A712AE7
:1004E000812A0730F1007D30F000F00B752AF10B06
:1004F000752A83120313061F7E2A7F2A792A343035
:10050000962A861B842A852A952A0730F1007D3099
:10051000F000F00B892AF10B892A83120313861F3E
:10052000922A932A8D2A3130962A6E30080083123F
:100530000313AE000230AB00AD01AA01A92A1230AC
:10054000AD001030AA00B92A7730AD003030AA00D3
:10055000B92A2E08A400A5012508003A0319B12ADA
:10056000B92A24080C3A0319A42A023A03199F2A2B
:10057000B92A2D088038F60002300A128A151D2289
:100580000A128A118030F90004300A128A15D1212A
:100590000A128A118030F9000A300A128A15A02145
:1005A0000A128A11F60101300A128A151D220A1256
:1005B0008A1183120313AF01B001F42A2F08200718
:1005C000A4002408840083130008F60009300A12EE
:1005D0008A151D220A128A11013083120313AF07F4
:1005E0000318B00A0030B0072108A400A5012508AF
:1005F0003002031DFD2A24082F02031C002B012BAF
:10060000DE2A2E08F60001300A128A151D220A126F
:100610008A110C30831203132E06031D102B112B8D
:10062000192B8030F9000D300A128A15A0210A1208
:100630008A11FF3083120313AF00FF30B000043083
:100640000A128A1534220A128A1183120313B10086
:100650000130AF020030031CB003B0022F08300499
:100660000319332B342B3E2B3118372B382B3E2BD1
:1006700031082A0503193D2B3E2B1F2B8030F90032
:100680000D300A128A15D1210A128A11831203131E
:100690002F08300403194D2B4E2BFB2B06300A126A
:1006A0008A1534220A128A111B39031D582B592B23
:1006B000F72B83120313AB012D083105A400241C72
:1006C000622B632B652BAB01AB0A0C302E06031D8E
:1006D0006A2B6B2BFB2B0A300A128A1534220A1262
:1006E0008A1183120313B1000C300A128A153422C6
:1006F0000A128A11073983120313AC002C0803195C
:10070000822B832BA82B3108A400A5010310A40D74
:10071000A50D0310A40DA50D0310A40DA50D2C0807
:100720002407A6000030031801302507A70026087B
:10073000F83EA80027080318013EFF3EA900230841
:100740008400280883138000840A29088000BC2BB9
:100750003108A400A5010310A40DA50D0310A40DDC
:10076000A50D0310A40DA50D2308840024088313F0
:100770008000840A250880003108031DC02BC12B8E
:10078000C32BB101B10A11303102031CC82BC92B94
:10079000CB2B1030B100AF01B001E32B2F082207A3
:1007A000A4002408840009300A128A1534220A128F
:1007B0008A1183138000013083120313AF070318DB
:1007C000B00A0030B0073108A400A50125083002A6
:1007D000031DEC2B24082F02031CEF2BF02BCE2B38
:1007E0002F082207A400240884008001FB2B02307C
:1007F00083120313AB002B080800F030831203139D
:10080000A900A601A7012030840083160313200845
:1008100083138000840A21088000840A2208800053
:10082000840A23088000840A24088000840A25089A
:1008300080000A128A110C200A128A1184300A12CE
:100840008A15B4220A128A111730F2008930F30097
:100850000A128A156D230A128A11C0300A128A15EB
:10086000B4220A128A11BD30F2008830F3000A1255
:100870008A156D230A128A1195300A128A15B4223C
:100880000A128A1183120313AA01AB018312031304
:100890002908013EA9002A08203E840029080A12DE
:1008A0008A1593210A128A11831380000130831262
:1008B0000313AA070318AB0A0030AB072B08803AD2
:1008C000FF0080307F02031D672C06302A02031CC4
:1008D0006A2C6B2C462C83120313AA01AB010A125B
:1008E0008A15C0210A128A1183120313A800051465
:1008F0000330FA008A30F9005530F800F80B7E2CEE
:10090000F90B7E2CFA0B7E2C852C83120313051019
:1009100028080A128A15D4220A128A118312031394
:100920002A08203E84008313000828060319992C06
:100930009A2C9E2C0130A6000030A7000130AA0797
:100940000318AB0A0030AB072B08803AFF00803059
:100950007F02031DAD2C06302A02031CB02CB12CE3
:100960006F2C1A30FA005E30F9006E30F800F80B88
:10097000B72CF90BB72CFA0BB72C0000831203131A
:1009800026082704031DC52CC62CA32DF001E0303A
:100990000A128A1566220A128A110A128A110C207A
:1009A0000A128A1182300A128A15B4220A128A1196
:1009B000ED30F2008830F3000A128A156D230A1216
:1009C0008A11C0300A128A15B4220A128A11243000
:1009D000F2008930F3000A128A156D230A128A1177
:1009E00095300A128A15B4220A128A11F030831245
:1009F0000313A900AA01AB01831203132908013EC6
:100A0000A9002A08693E84000A128A15C0210A1228
:100A10008A1183138000A630F800F80B0D2D00001A
:100A2000831203132A08693E840083130008F00030
:100A300029080A128A1566220A128A1183120313E0
:100A400029080A128A1593210A128A110A128A1594
:100A5000D4220A128A11013083120313AA07031841
:100A6000AB0A0030AB072B08803AFF0080307F02D2
:100A7000031D3C2D06302A02031C3F2D402DFC2C6B
:100A80001A30FA005E30F9006E30F800F80B462D8F
:100A9000F90B462DFA0B462D00000A128A110C2084
:100AA0000A128A1180300A128A15B4220A128A1197
:100AB0004E300A128A15D4220A128A11C0300A1244
:100AC0008A15B4220A128A110030F2008830F3002D
:100AD0000A128A156D230A128A1183120313051450
:100AE0000D30FA00AF30F900B630F800F80B762D73
:100AF000F90B762DFA0B762D000083120313851463
:100B00000D30FA00AF30F900B630F800F80B862D42
:100B1000F90B862DFA0B862D0000831203130515A1
:100B20000D30FA00AF30F900B630F800F80B962D12
:100B3000F90B962DFA0B962D000083120313051066
:100B400085100511AE2D26032704031DA82DA92D00
:100B5000AE2D0A128A1554240A128A110A128A1119
:100B60000C200A128A11080083120313CD01CE0152
:100B7000F030D7003D30840083160313260883131A
:100B80008000840A27088000840A28088000840ADC
:100B900029088000840A2A088000840A2B08800023
:100BA0000A128A110C200A128A1180300A128A1540
:100BB000B4220A128A112E30F2008930F3000A1290
:100BC0008A156D230A128A11E0300A128A159321C0
:100BD0000A128A11FF3A031DEE2DEF2D262E8312E5
:100BE00003130514033083120313BC008A30BB00C7
:100BF0005530BA00BA0BFA2DBB0BFA2DBC0BFA2DEF
:100C000083120313D801D901831203135708013E3D
:100C1000D7003030F00057080A128A1566220A12EF
:100C20008A11013083120313D8070318D90A003040
:100C3000D9075908803AFF0080307F02031D222E19
:100C400006305802031C252E262E042EC0300A1210
:100C50008A15B4220A128A11F03083120313D700C6
:100C6000D801D901831203135708013ED700580851
:100C70003D3E840057080A128A1593210A128A11F0
:100C800083138000013083120313D8070318D90A95
:100C90000030D9075908803AFF0080307F02031DD9
:100CA000532E06305802031C562E572E322E831216
:100CB0000313D801D9010A128A15C0210A128A1118
:100CC00083120313CF004F080A128A15D4220A1286
:100CD0008A118312031358083D3E840083130008D1
:100CE0004F060319742E752E792E0130CD00003079
:100CF000CE000514033083120313BC008A30BB00FE
:100D00005530BA00BA0B822EBB0B822EBC0B822E42
:100D10008312031305100130D8070318D90A0030D5
:100D2000D9075908803AFF0080307F02031D9A2EB0
:100D300006305802031C9D2E9E2E5B2E8312031339
:100D40004D034E040319A52EA62ED52F0A128A1183
:100D50000C200A128A1184300A128A15B4220A124F
:100D60008A113830F2008930F3000A128A156D2397
:100D70000A128A11C0300A128A15B4220A128A1184
:100D80001530F2008830F3000A128A156D230A121A
:100D90008A1194300A128A15B4220A128A110A1290
:100DA0008A15C0210A128A1183120313D50055082F
:100DB0000A128A159A220A128A11013A031DE12E9B
:100DC000E22E062F0A128A110C200A128A11843090
:100DD0000A128A15B4220A128A11DE30F200883013
:100DE000F3000A128A156D230A128A111A3083122F
:100DF0000313BC005E30BB006D30BA00BA0BFE2E90
:100E0000BB0BFE2EBC0BFE2E052FE02F831203130F
:100E100055080A128A159A220A128A11003A031DED
:100E2000122F132FC02F0A128A110C200A128A11B6
:100E3000C0300A128A15B4220A128A11AC30F200AC
:100E40008830F3000A128A156D230A128A111030B5
:100E500083120313D00051300A128A15E3210A12BB
:100E60008A11003A0319352F362F2B2F43300A12DF
:100E70008A1580220A128A11003A0319402F412F45
:100E80002B2F831203135008F00055080A128A15FD
:100E900008220A128A1183120313D600D301D40147
:100EA000831203135308433E840083130008F000A9
:100EB00056080A128A1566220A128A11831203132F
:100EC0005608013ED6000130D3070318D40A00307B
:100ED000D4075408803AFF0080307F02031D722F30
:100EE0000A305302031C752F762F502F83120313E1
:100EF0005008F00055080A128A1508220A128A11B1
:100F00000A3E83120313D600F00156080A128A150E
:100F100066220A128A118312031356080A128A15CE
:100F200093210A128A11003A031D972F982FB12F8F
:100F3000831203130514851405150D308312031352
:100F4000BC00AF30BB00B530BA00BA0BA52FBB0B4D
:100F5000A52FBC0BA52FAC2F8312031305108510F2
:100F600005111A3083120313BC005E30BB006D30D4
:100F7000BA00BA0BB92FBB0BB92FBC0BB92FC02FBE
:100F80000A128A110C200A128A11C0300A128A151C
:100F9000B4220A128A113D30F2008830F3000A129E
:100FA0008A156D230A128A11F62E4D034E04031D75
:100FB000DA2FDB2FE02F0A128A1554240A128A1125
:100FC00008008313AC30FD000930FE006E30FF00D6
:100FD000A03084000A128A15F9210A128A116F3092
:100FE000FD000930FE007A30FF00633084000A12F1
:100FF0008A15F9210A128A1183010A128A15FB2C1B
:101000004D346134743420346B3468346134753455
:101010002034643461342034643475346F34633480
:10102000203464346F3469340034543468346534A3
:101030006D342034743468346534203473346F3440
:1010400020343F342034303420342D3420343934AB
:1010500000344E34683461346E347034683469342A
:101060006D342034443423345434483441345934B6
:101070005034413453345334003454346834653478
:101080006D342034743468346534203474346834F6
:1010900061346E346834203463346F346E346734B2
:1010A00000344E34683461346E34703468346934DA
:1010B0006D342034423423345434483445344D3470
:1010C0005434483445340034203443347534613466
:1010D000203473346534203464346F346E346734B0
:1010E0002034743472346F346E34673400344E34C8
:1010F000683461346E347034683469346D3420344B
:101100004334233458344F34413454344834453410
:101110000034413420346D346F34203463347534FA
:10112000613420347134753465347434203474344B
:101130006834653400344E34683461346E3470344D
:10114000683469346D342034413423344D344F34A1
:101150004334553441340034583469346E342034C7
:101160006D346F34693420347134753465347434BB
:10117000203474346834653400344D34613474344C
:101180004B34683461347534203467346F346D34D3
:1011900020343634203473346F34003442342034F5
:1011A0006E3468346134703420346D346134743496
:1011B00020346B346834613475340034543468340A
:1011C0006534203464346134203474346F346E34C4
:1011D0002034743461346934003420344E3468343B
:1011E0006134703420347034613473347334203497
:1011F0006D346F346934003420344D3461347434C8
:1012000020346B3468346134753420347334613481
:10121000693400342034443461346E34673420340B
:101220006D346F34203463347534613400344E349B
:1012300068346134703420347034613473347334FE
:101240002034633475340034203447346F346D34C3
:1012500020343634203473346F3400344E346834E0
:101260006134703420347034613473347334003436
:101270005434683465346D342034743468346534DF
:10128000003458346F346134203474346834653435
:1012900000346734693461347934003420340034E4
:1012A000FF1B5A2983137F1883170008840A031928
:1012B000FF0A08007F087F398A000408840A03199E
:1012C000FF0A8200831203138601F0308316031392
:1012D00086007F30FF007F088105080030343034FD
:1012E00030343034303430343034303430343034DE
:1012F00030343034303430343034303430343034CE
:1013000030343034303430343034303483160313D6
:101310000711871087118715831203138710071091
:10132000071107100800F0007008831203178D00E2
:10133000831603178C130C14831203170C08080070
:10134000FA007A080A128A1534220A128A157904D8
:10135000F6007A080A128A151D220A128A15080058
:10136000F10083120313081088107108F039880007
:10137000081508114230F000F00BBC2900000800ED
:101380006E30F200C9290A128A1141210A128A1507
:10139000F2006E3072060319CE29CF29C3297208D4
:1013A0000800FB007909FA007B080A128A1534222A
:1013B0000A128A157A05F6007B080A128A151D2280
:1013C0000A128A150800FD007D08FC0026300A126A
:1013D0008A1598230A128A15003A031DF029F1296B
:1013E000F3290130F429003008007E088A007F08C4
:1013F00082000A128A15F5210A128A158000840AD1
:1014000004087D0603190034FF0A0319FE0AF929AE
:10141000F200F101721C0D2A0E2A122A7008FF0038
:101420007F08F1070310F00D0310F20C7208031D82
:101430001A2A1B2A0A2A71080800F80083120313CB
:1014400007107808F70077077E390A128A154423B7
:101450000A128A1576080A128A1544230A128A1576
:101460008312031307140800F400831203130710F8
:101470007408F30073077E3980380A128A154423F2
:101480000A128A150A128A15F6220A128A15F5001E
:101490008312031307147508080028300A128A15EE
:1014A000B0210A128A1528300A128A15B4220A12AB
:1014B0008A1506300A128A15B4220A128A150E30CD
:1014C0000A128A15B4220A128A150800F10071085E
:1014D000831203178D0070088C00831603178C137A
:1014E0000C158B1355308D00AA308D008C140C1107
:1014F000831203130D1E7D2A7E2A782A0D120800FE
:1015000083120313B90039080A128A15A3240A1298
:101510008A1583120313B8003908053E840083132B
:1015200080013808031D952A962A982A0130992AA5
:1015300000300800F3001030F00073080A128A151A
:1015400008220A128A150A3EF30073080A128A1545
:1015500093210A128A15FF3A031DAF2AB02AB22A34
:101560000030B32A01300800F10083120313081081
:1015700088107108F0398800081508117108F0000A
:1015800003300310F00DFF3E031DC12A0310700D40
:10159000F1007108F0398800081508114230F00098
:1015A000F00BD02A00000800F1007108F039831216
:1015B0000313880008148810081508117108F0003A
:1015C00003300310F00DFF3E031DE12A0310700DE0
:1015D000F1007108013EF10071088800081508113A
:1015E0004230F000F00BF22A00000800F201F10195
:1015F000F2010310F10D8312031387141030F00071
:10160000F00B002B000083120313871D082B092BFE
:101610000A2B711487101030F000F00B0D2B000016
:101620000130FF007F08F20708307202031C192BFB
:101630001A2BF92A710808000A128A110C200A12C2
:101640008A1584300A128A15B4220A128A1541308A
:10165000F2008930F3000A128A156D230A128A15E6
:10166000C0300A128A15B4220A128A151A30F700FD
:101670005E30F6006E30F500F50B3C2BF60B3C2B84
:10168000F70B3C2B00000800F100F201F201F11F02
:101690004A2B4B2B4F2B831203130715522B83120C
:1016A000031307110310F10D87141030F000F00B35
:1016B000572B00008312031387101030F000F00B3B
:1016C0005F2B00000130FF007F08F2070830720234
:1016D000031C6B2B6C2B472B0800F401842B740824
:1016E0007207840073080318730AFF000A128A1530
:1016F00050210A128A150A128A15D4220A128A1552
:101700000130FF007F08F407740872078400730833
:101710000318730A83120313FF000A128A1550215B
:101720000A128A15003A031D962B972B6F2B08007F
:1017300083120313B2000730F6000D300A128A1527
:101740001D220A128A157C088400831203133208B2
:10175000831380007C08A000A101A10A7C08A200DC
:101760003430A3000C300A128A1197220A128A150B
:1017700083120313B3003308031DBF2BC02BC72BE9
:101780001030340635040319C62BC72BC92B023081
:10179000B300330808000A128A110C200A128A15B5
:1017A00080300A128A15B4220A128A159B30F20080
:1017B0008830F3000A128A156D230A128A15C03088
:1017C0000A128A15B4220A128A155130F2008830A2
:1017D000F3000A128A156D230A128A1594300A1230
:1017E0008A15B4220A128A157730F2008830F30085
:1017F0000A128A156D230A128A15D4300A128A1524
:10180000B4220A128A152930F2008830F3000A1235
:101810008A156D230A128A15080083160313071010
:10182000071283120313071407160A128A110320E2
:101830000A128A158D30F6002A300A128A151D22E6
:101840000A128A153E30F6002B300A128A151D2224
:101850000A128A151E30F6002D300A128A151D2232
:101860000A128A15F6012C300A128A151D220A1254
:101870008A154030F60015300A128A151D220A1208
:101880008A153D30F60011300A128A151D220A12FF
:101890008A150A168A11EE270A128A150A168A1163
:1018A000F7270A128A1508000A128A110C200A1258
:1018B0008A15C2300A128A15B4220A128A15FC301F
:1018C000F2008830F3000A128A156D230A128A1575
:1018D0008312031305140D30F700AF30F600B63055
:1018E000F500F50B712CF60B712CF70B712C000029
:1018F00083120313051085140D30F700AF30F60086
:10190000B630F500F50B822CF60B822CF70B822CEF
:10191000000083120313851005150D30F700AF305A
:10192000F600B630F500F50B932CF60B932CF70B65
:10193000932C00008312031305110A128A110C2044
:101940000A128A15080083120313B700B201F601C8
:101950000D300A128A151D220A128A1583120313EA
:1019600037088400933083138000370A84002030C6
:1019700080000830F90008300A128A15D1210A12B5
:101980008A15831203133708A0000230A10037081C
:10199000A2003330A3000C300A128A1197220A12D7
:1019A0008A1583120313B5003508031DD82CD92CD2
:1019B000F92CB60136083707FC007C088400831335
:1019C0000008FF007F08B2060130FF007F08B6075D
:1019D00004303602031CED2CEE2CDA2C3708043EC2
:1019E0008400000832060319F62CF72CF92C02307B
:1019F000B50035080800831603138801D830850028
:101A00008312031388010A128A1586210A128A1585
:101A10000A128A150D240A128A150A128A154D22F5
:101A20000A128A150A128A1562210A128A1583126D
:101A300003130514073083120313E1005830E0004C
:101A40005930DF00DF0B222DE00B222DE10B222D80
:101A5000831203130510073083120313E10058307B
:101A6000E0005930DF00DF0B332DE00B332DE10BAD
:101A7000332D831203138514073083120313E100FF
:101A80005830E0005930DF00DF0B442DE00B442DCF
:101A9000E10B442D831203138510073083120313C7
:101AA000E1005830E0005930DF00DF0B552DE00B2E
:101AB000552DE10B552D83120313051507308312A5
:101AC0000313E1005830E0005930DF00DF0B662DD2
:101AD000E00B662DE10B662D831203130511073011
:101AE00083120313E1005830E0005930DF00DF0BB0
:101AF000772DE00B772DE10B772D0A128A15CB237A
:101B00000A128A150A128A15C0210A128A1583122E
:101B10000313E2002330620603198F2D902D822DCE
:101B200062080A128A153F260A128A157D2D0A12AA
:101B30008A1100288312031305140D30F700AF300B
:101B4000F600B630F500F50BA32DF60BA32DF70B21
:101B5000A32D000083120313051085140D30F70028
:101B6000AF30F600B630F500F50BB42DF60BB42D02
:101B7000F70BB42D000083120313851005150D30EB
:101B8000F700AF30F600B630F500F50BC52DF60BBB
:101B9000C52DF70BC52D00008312031305110A1282
:101BA0008A110C200A128A1582300A128A15B42270
:101BB0000A128A150A30F2008930F3000A128A15D7
:101BC0006D230A128A15831203138516C0300A1278
:101BD0008A15B4220A128A156430F2008830F300A4
:101BE0000A128A156D230A128A153930F90000305D
:101BF000FA007908F800DA300A128A15B4220A12BB
:101C00008A1578080A128A15D4220A128A15DC303D
:101C10000A128A15B4220A128A154930F200893054
:101C2000F3000A128A156D230A128A151A30F7007A
:101C30005E30F6006E30F500F50B1C2EF60B1C2EF8
:101C4000F70B1C2E0000FF30F9070318FA0AFF30CB
:101C5000FA077A08803AFF0080307F02031D322E97
:101C6000303079020318352E362EF92D83120313E6
:101C700085120A128A110C200A128A150800831292
:101C80000313DE0041305E06031D472E482EA32EAF
:101C90008514033083120313DC008A30DB005530D7
:101CA000DA00DA0B512EDB0B512EDC0B512E831296
:101CB000031385100A128A110C200A128A1580302B
:101CC0000A128A15B4220A128A158930F200883065
:101CD000F3000A128A156D230A128A15C0300A12FF
:101CE0008A15B4220A128A15CE30F2008830F30029
:101CF0000A128A156D230A128A150A128A15C02142
:101D00000A128A1583120313DD0044305D0603199D
:101D10008A2E8B2E7D2E41305D06031D902E912E36
:101D2000962E0A128A1501270A128A15423083124A
:101D300003135D06031D9D2E9E2EA32E0A128A11EB
:101D400041200A128A154230831203135E06031DD6
:101D5000AA2EAB2EC22E8514033083120313DC008F
:101D60008A30DB005530DA00DA0BB42EDB0BB42EF0
:101D7000DC0BB42E8312031385100A128A11B425CA
:101D80000A128A154330831203135E06031DC92EFF
:101D9000CA2EE12E8514033083120313DC008A302F
:101DA000DB005530DA00DA0BD32EDB0BD32EDC0B45
:101DB000D32E8312031385100A128A151C230A12CC
:101DC0008A154430831203135E06031DE82EE92EA4
:101DD000002F8514033083120313DC008A30DB00EC
:101DE0005530DA00DA0BF22EDB0BF22EDC0BF22E82
:101DF0008312031385100A128A11FD230A128A1511
:101E0000080083120313BD01BE01BF01C001D6014A
:101E1000D7011030CB000030CC00D201D3010A1220
:101E20008A110C200A128A15C0300A128A15B422AF
:101E30000A128A15AC30F2008830F3000A128A15B3
:101E40006D230A128A1550300A128A15E3210A12EC
:101E50008A15003A03192D2F2E2F232F41300A12F5
:101E60008A1580220A128A15003A0319382F392F51
:101E7000232F83120313CE01CF0183120313051402
:101E8000023083120313BC004530BB00A930BA00F6
:101E9000BA0B482FBB0B482FBC0B482F83120313E0
:101EA0000510023083120313BC004530BB00A9307B
:101EB000BA00BA0B592FBB0B592FBC0B592F8312E9
:101EC0000313D401D501831203134B08F000520809
:101ED0000A128A1508220A128A158312031353075D
:101EE000CD005408413E84004D080A128A15932102
:101EF0000A128A1583130006031D7F2F802FAA2F35
:101F0000831203135608013ED60057080318013EFA
:101F1000003ED7008514033083120313BC008A30BF
:101F2000BB005530BA00BA0B932FBB0B932FBC0BE1
:101F3000932F831203138510033083120313BC0005
:101F40008A30BB005530BA00BA0BA42FBB0BA42FAC
:101F5000BC0BA42F831203135308013ED30001309E
:101F6000D4070318D50A0030D5075508803AFF007A
:101F700080307F02031DBE2F0A305402031CC12F84
:101F8000C22F632F83120313D3015708803AFF0037
:101F900080307F02031DCE2F06305602031CD12F46
:101FA000D22FD82F0A128A159A250A128A15F22FD3
:101FB00083120313D601D7015208013ED20001302B
:101FC000CE070318CF0A0030CF074F08803AFF0032
:101FD00080307F02031DEE2F0A304E02031CF12FCA
:101FE000F22F3D2F8312031356085704031DF92FB8
:101FF000FA2FFF2F0A128A1554240A128A15080094
:102FDC000330F90014300A128A15D1210A168A110D
:102FEC0008000330F90014300A128A15A0210A16C1
:042FFC008A1108002E
:02400E003A3F37
:00000001FF
